:100000000C9434000C9451000C9451000C94510049
:100010000C9451000C9451000C9451000C9451001C
:100020000C9451000C9451000C9451000C94EC056C
:100030000C9451000C9451000C942D050C9451001B
:100040000C9451000C9451000C9451000C945100EC
:100050000C9451000C9451000C9451000C945100DC
:100060000C9451000C94510011241FBECFEFD8E026
:10007000DEBFCDBF12E0A0E0B1E0E6E6FCE102C0E9
:1000800005900D92AE30B107D9F712E0AEE0B2E0C4
:1000900001C01D92A132B107E1F70E9453000C94F8
:1000A000310E0C9400000F931F93DF93CF93CDB7C5
:1000B000DEB76E970FB6F894DEBF0FBECDBF0E94BD
:1000C000360201C0000082E090E09A83898334C048
:1000D00083E290E0FC018081882F90E0098002C0DB
:1000E000959587950A94E2F7817090700097B1F426
:1000F00089819A81880F991F8D5E9D4FFC018081B7
:1001000091819C012F5F3F4F89819A81880F991FB0
:100110008D5E9D4FFC013183208309C089819A81C6
:10012000880F991F8D5E9D4FFC011182108289817D
:100130009A8101969A83898389819A818530910574
:100140003CF28091170290911802803F910509F0CE
:10015000A0C089C08FE690E0FC0110828091000170
:100160008F5F8093000180E090E0A8E4B2E48B838D
:100170009C83AD83BE836B817C818D819E8120E0D9
:1001800030E04AE753E40E94B908DC01CB018F83D9
:100190009887A987BA8711E06F81788589859A85C4
:1001A00020E030E040E85FE30E94C10A88230CF0C1
:1001B00010E0112329F081E090E09C878B8746C0F6
:1001C00011E06F81788589859A8520E03FEF4FE7C0
:1001D00057E40E94610A18160CF010E0112361F137
:1001E0006B817C818D819E8120E030E040E251E492
:1001F0000E94B908DC01CB01BC01CD010E94E506DB
:10020000DC01CB019C878B8712C089E190E09E873F
:100210008D878D859E858C01C8010197F1F78C0132
:100220001E870D878B859C8501979C878B878B8587
:100230009C85009751F717C06F81788589859A85CD
:100240000E94E506DC01CB019C878B878B859C8512
:10025000988B8F878F8598898C01F8013197F1F7FA
:100260008F01188B0F8783E290E0FC018081882F3B
:1002700090E084709070009709F46CCF84E890E06F
:10028000FC01118210828FE690E022E0FC012083C5
:100290001ACF8091190290911A02803F910509F0BE
:1002A000A0C089C08FE690E0FC011082809100011F
:1002B00081508093000180E090E0A8E4B2E4898B53
:1002C0009A8BAB8BBC8B69897A898B899C8920E05E
:1002D00030E04AE753E40E94B908DC01CB018D8B82
:1002E0009E8BAF8BB88F11E06D897E898F89988D39
:1002F00020E030E040E85FE30E94C10A88230CF070
:1003000010E0112329F081E090E09A8F898F46C098
:1003100011E06D897E898F89988D20E03FEF4FE74E
:1003200057E40E94610A18160CF010E0112361F1E5
:1003300069897A898B899C8920E030E040E251E428
:100340000E94B908DC01CB01BC01CD010E94E50689
:10035000DC01CB019A8F898F12C089E190E09C8FDC
:100360008B8F8B8D9C8D8C01C8010197F1F78C01CF
:100370001C8F0B8F898D9A8D01979A8F898F898D0C
:100380009A8D009751F717C06D897E898F89988D56
:100390000E94E506DC01CB019A8F898F898D9A8DA9
:1003A0009E8F8D8F8D8D9E8D8C01F8013197F1F789
:1003B0008F011E8F0D8F83E290E0FC018081882FDA
:1003C00090E088709070009709F46CCF84E890E01A
:1003D000FC01118210828FE690E022E0FC01208374
:1003E00072CE80911B0290911C02803F910509F012
:1003F00069CE80911102882F90E001968630910598
:100400001CF01092110205C0809111028F5F809341
:10041000110280911102882F90E08330910534F40D
:10042000813091058CF4009759F01DC084309105FE
:1004300099F08430910564F08530910589F013C0FE
:1004400084E0809305010FC082E0809305010BC01A
:1004500083E08093050107C085E08093050103C018
:1004600086E0809305010E9480032DCEEF92FF92DB
:100470000F931F93DF93CF9300D0CDB7DEB78AE2FF
:1004800090E02FEFFC01208387E290E027E0FC0161
:10049000208384E290E023E0FC01208385E290E069
:1004A0002CE1FC0120838091020190910301CC0199
:1004B000A0E0B0E0BC01CD010E94430B7B018C01A8
:1004C00080910001882F90E0A0E0B0E0BC01CD0158
:1004D0000E94430B9B01AC0160E070E080E792E476
:1004E0000E94B309DC01CB019C01AD01C801B70139
:1004F0000E94B908DC01CB01BC01CD010E94E506D8
:10050000DC01CB0190931F0280931E021A82198294
:100510000EC089819A81880F991F8D5E9D4FFC01C5
:100520001182108289819A8101969A8389838981B7
:100530009A81853091056CF384E490E022E0FC011F
:10054000208385E490E023E0FC01208387E490E0B1
:1005500026E2FC0120838EE690E022E0FC0120836D
:1005600080E890E023E0FC01208381E890E02AE12C
:10057000FC01208308E810E08091020190910301C2
:100580009C0140E050E088E498EEA1E0B0E0BC01BE
:10059000CD010E94C40DDA01C9010197F8019183D0
:1005A00080838FE690E022E0FC01208378940F9016
:1005B0000F90CF91DF911F910F91FF90EF900895D1
:1005C000DF93CF9300D000D0CDB7DEB79A83898375
:1005D0007C836B8389819A818130910579F08230A7
:1005E0009105B1F00097F1F488E290E028E230E064
:1005F000F90120812160FC01208314C088E290E091
:1006000028E230E0F90120812260FC0120830AC049
:1006100088E290E028E230E0F90120812460FC01CA
:10062000208300008B819C818430910509F43FC0B8
:100630008530910584F48130910539F1823091053E
:100640001CF40097E1F055C08230910521F1833010
:10065000910539F14EC087309105D9F18830910567
:100660003CF48530910549F18630910561F141C036
:1006700088309105A1F189309105B1F13AC08BE242
:1006800090E020E4FC01208334C08BE290E029E775
:10069000FC0120832EC08BE290E024E2FC01208349
:1006A00028C08BE290E020E3FC01208322C08BE293
:1006B00090E029E1FC0120831CC08BE290E022E164
:1006C000FC01208316C08BE290E022E0FC01208335
:1006D00010C08BE290E028E7FC0120830AC08BE287
:1006E00090E0FC01108205C08BE290E020E1FC016B
:1006F00020830F900F900F900F90CF91DF9108956E
:100700000F931F93DF93CF93CDB7DEB76C970FB6E0
:10071000F894DEBF0FBECDBF1A8219821C821B82E5
:100720008EE690E0FC0110828FE690E0FC011082E2
:1007300088E290E028E230E0F9012081287FFC0186
:1007400020838BE290E02FEFFC0120836AC18B8134
:100750009C81009709F04DC088E290E028E230E0EB
:10076000F90120812B7FFC01208388E290E028E2C0
:1007700030E0F90120812160FC01208381E090E0DC
:100780009C838B8380911102882331F48BE290E06B
:1007900029E1FC0120836BC080911102823021F09D
:1007A00080911102813031F48BE290E024E2FC016F
:1007B00020835DC080911102833031F48BE290E0A0
:1007C00020E3FC01208353C080911102843031F476
:1007D0008BE290E022E1FC01208349C0809111026C
:1007E000853009F043C08BE290E022E0FC012083D9
:1007F0003EC088E290E028E230E0F90120812E7FBF
:10080000FC01208388E290E028E230E0F9012081B9
:100810002460FC0120831C821B82809111028823AA
:1008200021F080911102813031F48BE290E029E1D6
:10083000FC0120831CC080911102823031F48BE2D4
:1008400090E024E2FC01208312C0809111028330E9
:1008500041F080911102843021F0809111028530A5
:1008600031F48BE290E0FC01108201C0000080E0D6
:1008700090E0A0E8BFE38D839E83AF83B8876D814E
:100880007E818F8198852BEA3AEA4AEA5EE30E94EC
:10089000B908DC01CB0189879A87AB87BC8711E057
:1008A00069857A858B859C8520E030E040E85FE3B0
:1008B0000E94C10A88230CF010E0112319F081E096
:1008C0008D87A3C011E069857A858B859C8520E0A2
:1008D00030E04FE753E40E94610A18160CF010E074
:1008E000112309F489C06D817E818F81988520E074
:1008F00030E04AE754E40E94B309DC01CB018E8763
:100900009F87A88BB98B6E857F858889998920E020
:1009100030E04AE753E40E94B908DC01CB018A8B3E
:100920009B8BAC8BBD8B11E06A897B898C899D89FF
:1009300020E030E040E85FE30E94C10A88230CF029
:1009400010E0112329F081E090E09F8B8E8B46C050
:1009500011E06A897B898C899D8920E03FEF4FE710
:1009600057E40E94610A18160CF010E0112361F19F
:100970006E857F858889998920E030E040E251E4E6
:100980000E94B908DC01CB01BC01CD010E94E50643
:10099000DC01CB019F8B8E8B12C089E190E0998F97
:1009A000888F888D998D8C01C8010197F1F78C0192
:1009B000198F088F8E899F8901979F8B8E8B8E89C7
:1009C0009F89009751F728C06A897B898C899D8906
:1009D0000E94E506DC01CB019F8B8E8B8E899F895F
:1009E0009B8F8A8F8A8D9B8D8C01F8013197F1F74F
:1009F0008F011B8F0A8F10C069857A858B859C8536
:100A00000E94E506DC01CB018D878D858C8F8C8D56
:100A1000182F1A95F1F71C8F89819A8101969A8374
:100A2000898389819A81F1E0853F9F0708F48FCE01
:100A30008EE690E022E0FC0120838FE690E022E049
:100A4000FC0120836C960FB6F894DEBF0FBECDBFBD
:100A5000CF91DF911F910F9108951F920F920FB6C2
:100A60000F9211242F933F934F935F936F937F9334
:100A70008F939F93AF93BF93EF93FF93DF93CF93A6
:100A8000CDB7DEB780910101882381F58091000107
:100A9000843640F188E290E028E230E0F9012081DC
:100AA000297FFC01208380910101E82FF0E08091F3
:100AB0000001282F30E08091000194E6692F0E9408
:100AC000A50D892F882F90E0A901481B590BCA0159
:100AD00024E630E0B9010E94B10D9B01CF01B901BC
:100AE0000E94E00281E08093010163C080910101D6
:100AF0008130D1F5809100018A3090F188E290E058
:100B000028E230E0F90120812A7FFC0120838091D6
:100B10000101E82FF0E08091000194E6692F0E9426
:100B2000A50D892F282F30E08091000194E6692FD0
:100B30000E94A50D892F9AE0692F0E94A50D892F8B
:100B4000882F90E0A901481B590BCA012AE030E028
:100B5000B9010E94B10D9B01CF01B9010E94E002D1
:100B600082E08093010125C080910101823009F566
:100B700088E290E028E230E0F90120812C7FFC013E
:100B8000208380910101482F50E08091000194E67C
:100B9000692F0E94A50D892F9AE0692F0E94A50D4B
:100BA000892F282F30E0CA01B9010E94E00210927B
:100BB0000101CF91DF91FF91EF91BF91AF919F9193
:100BC0008F917F916F915F914F913F912F910F90F6
:100BD0000FBE0F901F9018951F920F920FB60F9295
:100BE0001124EF92FF920F931F932F933F934F93F4
:100BF0005F936F937F938F939F93AF93BF93EF9385
:100C0000FF93DF93CF93CDB7DEB780910E02909123
:100C10000F02019690930F0280930E0280E890E0FD
:100C200020E830E0F90120812F7BFC012083209116
:100C30000E0230910F0280911E0290911F02281720
:100C4000390729F080911002813009F0A7C081E0B6
:100C50008093100285E290E025E230E0F9013081D6
:100C600021E02327FC01208380E890E020E830E0A9
:100C7000F90120812064FC01208380910401282F48
:100C800030E080911E0290911F02280F391F809141
:100C90000E0290910F022817390709F07FC01092B9
:100CA000100210920F0210920E0285E290E025E2EF
:100CB00030E0F90120812E7FFC0120838091120217
:100CC00090910501692F0E94A50D892F882379F441
:100CD00088EE93E0909303018093020184E1809376
:100CE0000401809112028F5F809312020EC080ED8A
:100CF00097E0909303018093020188E280930401BE
:100D0000809112028F5F8093120280910201909174
:100D10000301CC01A0E0B0E0BC01CD010E94430B77
:100D20007B018C0180910001882F90E0A0E0B0E071
:100D3000BC01CD010E94430B9B01AC0160E070E05F
:100D400080E792E40E94B309DC01CB019C01AD0174
:100D5000C801B7010E94B908DC01CB01BC01CD017B
:100D60000E94E506DC01CB0190931F0280931E02D6
:100D700008E810E080910201909103019C0140E09D
:100D800050E088E498EEA1E0B0E0BC01CD010E9403
:100D9000C40DDA01C901F80191838083CF91DF91FD
:100DA000FF91EF91BF91AF919F918F917F916F9143
:100DB0005F914F913F912F911F910F91FF90EF9075
:100DC0000F900FBE0F901F901895EF92FF920F9308
:100DD0001F937B018C0120E030E040E05FE40E9443
:100DE000910A87FD11C0C801B70120E030E040E062
:100DF0005FE40E9488080E94F10A9B01AC01205028
:100E000030404040504806C0C801B7010E94F10A76
:100E10009B01AC01B901CA011F910F91FF90EF90A6
:100E20000895A0E0B0E0E7E1F7E00C94FE0DFC01CE
:100E3000EA018081823008F438C1DB019C91923054
:100E400008F430C1843059F4943009F02EC19181F6
:100E500011968C911197981709F021C126C19430F1
:100E600009F420C19230B1F4823009F01EC1CA01E8
:100E7000AF0128E0DA010D90AD01DC010D92CD014A
:100E80002150C1F7DB0111968C9111979181892333
:100E900089830AC1823009F405C1C280D380DB0195
:100EA00012966D907C9013972481358146815781ED
:100EB0001496ED90FD900D911C911797C60186191F
:100EC00097095C0197FF04C0AA24BB24A81AB90A99
:100ED000B0E2AB16B1040CF061C0181619066CF53F
:100EE000370148010A2C04C096948794779467943C
:100EF0000A94D2F781E090E0A0E0B0E00A2C04C0B0
:100F0000880F991FAA1FBB1F0A94D2F70197A10946
:100F1000B1098E219F21A023B123EE24FF24870154
:100F2000E3940097A105B10519F4EE24FF2487018D
:100F3000E628F728082919293CC00097D1F1CA0CE6
:100F4000DB1C39014A010A2C04C0969487947794DB
:100F500067940A94D2F781E090E0A0E0B0E00A2C18
:100F600004C0880F991FAA1FBB1F0A94D2F70197CC
:100F7000A109B10982239323A423B52321E030E002
:100F800040E050E00097A105B10519F420E030E001
:100F9000A90126293729482959290BC06C147D0439
:100FA00024F4EE24FF24870104C0630120E030E034
:100FB000A9018181FB019181891709F445C088232A
:100FC00049F0D801C701821B930BA40BB50B9C0100
:100FD000AD0104C02E193F09400B510B57FD04C051
:100FE0001982DB82CA820BC081E08983DB82CA82DC
:100FF00050954095309521953F4F4F4F5F4F2C8333
:101000003D834E835F830DC0880F991FAA1FBB1FAE
:101010008C839D83AE83BF838A819B8101979B8351
:101020008A838C819D81AE81BF819C01AD0121505D
:101030003040404050402F3FEFEF3E07EFEF4E076C
:10104000EFE35E0708F30BC08983DB82CA822E0DB3
:101050003F1D401F511F2C833D834E835F8383E0E0
:1010600088832C813D814E815F8157FF1DC0DA014D
:10107000C90181709070A070B070569547953795F2
:101080002795822B932BA42BB52B8C839D83AE832A
:10109000BF838A819B8101969B838A8305C0E6E09A
:1010A000F1E003C0FB0101C0FE01CF01CDB7DEB707
:1010B000EEE00C941A0EA0E2B0E0E1E6F8E00C9449
:1010C000060E69837A838B839C832D833E834F83B3
:1010D000588789E0E82EF12CEC0EFD1ECE0101961A
:1010E000B7010E94E30C8E010F5E1F4FCE010596E3
:1010F000B8010E94E30CC701B801AE01475E5F4F23
:101100000E9411070E94150CA096E6E00C94220E96
:10111000A0E2B0E0EEE8F8E00C94060E69837A8372
:101120008B839C832D833E834F8358878E01075F7B
:101130001F4FCE010196B8010E94E30C91E1E92E08
:10114000F12CEC0EFD1ECE010596B7010E94E30CBA
:101150008A8991E089278A8BC801B701AE01475E71
:101160005F4F0E9411070E94150CA096E6E00C94B8
:10117000220EA0E2B0E0EFEBF8E00C94FA0D6983E8
:101180007A838B839C832D833E834F835887CE0144
:101190000196BE01675F7F4F0E94E30CCE0105966A
:1011A000BE016F5E7F4F0E94E30C9985923078F00C
:1011B00089898230C0F0943019F4823041F4CBC078
:1011C000843019F4923079F4C6C0923051F481E041
:1011D0002A859A89291709F480E08A87CE01099621
:1011E000BCC0823051F481E02A859A89291709F41C
:1011F00080E08A8BCE014196B0C06D847E848F845E
:101200009888ED88FE880F89188DE0E2F0E080E094
:1012100090E0DC01AA24BB24650120E030E0A901B4
:10122000B3016170707061157105D1F02E0D3F1D15
:10123000401F511F15012601280E391E4A1E5B1E34
:1012400081E090E0A0E0B0E02E153F054007510797
:1012500018F080E090E0DC01820D931DA41DB51D07
:10126000AA0CBB1CCC1CDD1C17FF09C061E0262E9C
:10127000312C412C512CA228B328C428D5283197D1
:1012800049F0EE0CFF1C001F111F96948794779471
:101290006794C6CF6B897C89EB85FC856E0F7F1FB9
:1012A0006E5F7F4F7C8F6B8F61E0EA857A89E717ED
:1012B00009F460E06A8F6B8D7C8D10C0FC01E170D9
:1012C000F070309729F056954795379527955068D7
:1012D000B695A795979587956F5F7F4FB7FDEECF32
:1012E0000CC0880F991FAA1FBB1F57FD8160220FDA
:1012F000331F441F551F615070408030E0E09E074F
:10130000E0E0AE07E0E4BE0760F36B8F7C8F6FE731
:10131000E62EF12C012D112DE822F9220A231B23A0
:1013200060E4E616F1040105110561F487FD0AC0C9
:10133000211531054105510529F0805C9F4FAF4FC4
:10134000BF4F80788D8F9E8FAF8FB8A383E0898F3A
:10135000CE01499602C086E091E00E94150CA0964D
:10136000E2E10C94160EA8E1B0E0E9EBF9E00C9490
:10137000020E69837A838B839C832D833E834F8304
:1013800058878E01075F1F4FCE010196B8010E945A
:10139000E30C81E1E82EF12CEC0EFD1ECE0105964A
:1013A000B7010E94E30C9985923008F483C08989C3
:1013B000823008F47BC02A853A8923272A87943013
:1013C00011F0923021F4981709F06CC071C084308C
:1013D00039F41D861E861F86188A1C861B866AC0E5
:1013E000823019F484E0898765C08B859C852B89C0
:1013F0003C89821B930B9C878B872D853E854F856F
:101400005889ED88FE880F89188D2E153F054007F5
:10141000510738F4220F331F441F551F01979C8733
:101420008B876FE170E0A12CB12CC12CA0E4DA2EE7
:1014300080E090E0DC012E153F054007510740F0A9
:101440008A299B29AC29BD292E193F09400B510B34
:10145000D694C794B794A794220F331F441F551FE7
:101460006150704041F76FE7E62EF12C012D112DF0
:10147000E822F9220A231B2360E4E616F1040105A1
:10148000110561F487FD0AC021153105410551059B
:1014900029F0805C9F4FAF4FBF4F80788D879E872C
:1014A000AF87B88B8E01075F1F4F04C0870102C052
:1014B00006E011E0C8010E94150C6896EAE00C9461
:1014C0001E0EA8E1B0E0E7E6FAE00C94060E698390
:1014D0007A838B839C832D833E834F8358878E0131
:1014E000075F1F4FCE010196B8010E94E30C81E116
:1014F000E82EF12CEC0EFD1ECE010596B7010E94E0
:10150000E30C8985823040F08989823028F0C80157
:10151000B7010E944C0D01C08FEF6896E6E00C9475
:10152000220EA8E1B0E0E7E9FAE00C94060E698328
:101530007A838B839C832D833E834F8358878E01D0
:10154000075F1F4FCE010196B8010E94E30C81E1B5
:10155000E82EF12CEC0EFD1ECE010596B7010E947F
:10156000E30C8985823040F08989823028F0C801F7
:10157000B7010E944C0D01C08FEF6896E6E00C9415
:10158000220EA8E1B0E0E7ECFAE00C94060E6983C5
:101590007A838B839C832D833E834F8358878E0170
:1015A000075F1F4FCE010196B8010E94E30C81E155
:1015B000E82EF12CEC0EFD1ECE010596B7010E941F
:1015C000E30C8985823040F08989823028F0C80197
:1015D000B7010E944C0D01C081E06896E6E00C94D2
:1015E000220EACE0B0E0E7EFFAE00C940A0E69835B
:1015F0007A838B839C83CE010196BE016B5F7F4F04
:101600000E94E30C8D81823081F1823070F1843050
:1016100021F48E81882369F10AC02F81388537FD36
:1016200024C06E812F3131053CF0662311F120E09A
:1016300030E040E050E821C08EE190E0821B930B47
:1016400029853A854B855C8504C056954795379525
:1016500027958A95D2F7662381F05095409530956D
:1016600021953F4F4F4F5F4F08C020E030E0A90168
:1016700004C02FEF3FEF4FEF5FE7B901CA012C968F
:10168000E2E00C94260EA8E0B0E0E9E4FBE00C9464
:10169000040E7B018C011A8261157105810591058B
:1016A00019F482E089835FC083E089838EE1C82ECC
:1016B000D12CDC82CB82ED82FE820F831887C80199
:1016C000B7010E94BB0BFC013197F7FF3AC0AA2774
:1016D000BB27AE1BBF0B21E030E040E050E00A2EFC
:1016E00004C0220F331F441F551F0A94D2F7215004
:1016F0003040404050402E213F214023512361E0A3
:1017000070E080E090E0211531054105510519F4A4
:1017100060E070E0CB0104C016950795F794E7945C
:10172000AA95D2F7E62AF72A082B192BED82FE821A
:101730000F8318878EE190E08E1B9F0B9C838B8319
:1017400012C0309781F00E2E04C0EE0CFF1C001F5B
:10175000111F0A94D2F7ED82FE820F831887CE1AEA
:10176000DF0ADC82CB82CE0101960E94150C2896FE
:10177000E8E00C94200EAF92BF92CF92DF92EF92EE
:10178000FF920F931F937B018C0180E0E81680E0AD
:10179000F80681E0080780E0180758F4EFEFEE162E
:1017A000F1040105110509F090F480E090E0DC01FE
:1017B00017C0F0E0EF16F0E0FF06F0E00F07F1E0F1
:1017C0001F0750F480E190E0A0E0B0E009C088E09D
:1017D00090E0A0E0B0E004C088E190E0A0E0B0E0DC
:1017E00020E230E040E050E0281B390B4A0B5B0B55
:1017F0005701680104C0D694C794B794A7948A95FA
:10180000D2F7D601C501825F9E4FFC018081281B63
:10181000310941095109C9011F910F91FF90EF90C2
:10182000DF90CF90BF90AF900895EF92FF920F930B
:101830001F93CF93DF93FC0124813581468157812B
:1018400061818081823020F44061EFEFF0E0A3C03D
:10185000843009F49BC0823009F492C0211531050F
:101860004105510509F48FC00280F381E02D8FEF0F
:10187000E238F8070CF05AC0C2E8DFEFCE1BDF0BEE
:10188000CA31D1056CF579018A010C2E04C0169578
:101890000795F794E7940A94D2F781E090E0A0E0EE
:1018A000B0E00C2E04C0880F991FAA1FBB1F0A941A
:1018B000D2F70197A109B10982239323A423B52369
:1018C00021E030E040E050E00097A105B10519F4B7
:1018D00020E030E0A9012E293F29402B512B03C0E5
:1018E00020E030E0A901DA01C9018F779070A07083
:1018F000B07080349105A105B10539F427FF09C006
:10190000205C3F4F4F4F5F4F04C0215C3F4F4F4F14
:101910005F4FE1E0F0E0203080E0380780E04807EA
:1019200080E4580728F5E0E0F0E022C0E038F10557
:101930006CF5E158FF4FDA01C9018F779070A07004
:10194000B07080349105A105B10539F427FF09C0B5
:10195000205C3F4F4F4F5F4F04C0215C3F4F4F4FC4
:101960005F4F57FF05C05695479537952795319698
:1019700087E056954795379527958A95D1F70BC0FF
:10198000E0E0F0E005C0E0E0F0E005C0EFEFF0E0FF
:1019900020E030E0A9018E2F879588278795942F26
:1019A0009F77679566276795E695E22EA92FA82B66
:1019B000FE2FF62B622F732F8A2F9F2FCDB7DEB706
:1019C000E6E00C94220EDC01FB012C9111963C9177
:1019D000119712968C911297482F4F7750E0982FBD
:1019E000991F9927991F13966C911397862F880F2B
:1019F000892B90E0661F6627661F6183009739F583
:101A0000211531054105510511F482E029C082E814
:101A10009FEF9383828367E0220F331F441F551F7C
:101A20006A95D1F783E0808309C0220F331F441FDA
:101A3000551F82819381019793838283203080E0B8
:101A4000380780E0480780E4580778F320C08F3FCC
:101A5000910579F4211531054105510519F484E00A
:101A60008083089544FF03C081E0808310C010820A
:101A70000EC08F5790409383828383E0808387E0FA
:101A8000220F331F441F551F8A95D1F750642483BA
:101A90003583468357830895FC01DB0190819230A2
:101AA00008F449C08C91823008F445C0943051F458
:101AB00061818430B1F511962C91119730E0261B8D
:101AC000310941C0843021F0923041F48230B1F1CB
:101AD00011968C9111978823A1F12DC061818230DC
:101AE00001F111968C9111976817D9F422813381F5
:101AF00012968D919C9113978217930794F0281753
:101B00003907BCF0248135814681578114968D9127
:101B10009D910D90BC91A02D82179307A407B50746
:101B200018F4662341F00DC0281739074A075B07F0
:101B300028F4662331F021E030E005C020E030E0F9
:101B400002C02FEF3FEFC9010895991B79E004C04F
:101B5000991F961708F0961B881F7A95C9F78095EC
:101B6000089597FB092E07260AD077FD04D02ED0C2
:101B700006D000201AF4709561957F4F0895F6F70E
:101B8000909581959F4F0895A1E21A2EAA1BBB1B29
:101B9000FD010DC0AA1FBB1FEE1FFF1FA217B30739
:101BA000E407F50720F0A21BB30BE40BF50B661F4F
:101BB000771F881F991F1A9469F760957095809513
:101BC00090959B01AC01BD01CF010895AA1BBB1BE1
:101BD00051E107C0AA1FBB1FA617B70710F0A61B2D
:101BE000B70B881F991F5A95A9F780959095BC014E
:101BF000CD0108952F923F924F925F926F927F9204
:101C00008F929F92AF92BF92CF92DF92EF92FF920C
:101C10000F931F93CF93DF93CDB7DEB7CA1BDB0BB8
:101C20000FB6F894DEBF0FBECDBF09942A8839885D
:101C300048885F846E847D848C849B84AA84B98464
:101C4000C884DF80EE80FD800C811B81AA81B98170
:101C5000CE0FD11D0FB6F894DEBF0FBECDBFED0184
:061C60000895F894FFCF87
:101C66003C01D0072804000000000000000000012D
:101C76000202030303030404040404040404050524
:101C860005050505050505050505050505050606FC
:101C960006060606060606060606060606060606DE
:101CA60006060606060606060606060606060707CC
:101CB60007070707070707070707070707070707AE
:101CC600070707070707070707070707070707079E
:101CD600070707070707070707070707070707078E
:101CE600070707070707070707070707070708087C
:101CF600080808080808080808080808080808085E
:101D0600080808080808080808080808080808084D
:101D1600080808080808080808080808080808083D
:101D2600080808080808080808080808080808082D
:101D3600080808080808080808080808080808081D
:101D4600080808080808080808080808080808080D
:101D560008080808080808080808080808080808FD
:0E1D66000808080808080808080808080808FF
:00000001FF
